:020000040800F2
:1000000010550024F9030008835500089F5100088B
:100010008155000839070008BD6500080000000090
:10002000000000000000000000000000390300088C
:10003000150D00080000000095030008B5590008E0
:100040001704000817040008170400081704000824
:100050001704000817040008170400081704000814
:10006000170400081704000817040008A90800086E
:10007000B5080008C10800081704000817040008A4
:10008000170400081704000817040008390D0008B9
:100090001704000817040008450D0008170400089D
:1000A00017040008715B0008170400081704000813
:1000B00017040008170400081704000817040008B4
:1000C00017040008170400081704000817040008A4
:1000D0001704000817040008B16500081704000899
:1000E00017040008170400080000000017040008A7
:1000F0001704000817040008170400081704000874
:100100001704000817040008170400081704000863
:100110001704000817040008170400081704000853
:100120001704000817040008170400081704000843
:10013000170400081704000817040008510D0008F0
:1001400000000000000000000000000000000000AF
:100150001704000817040008170400081704000813
:100160001704000817040008170400081704000803
:100170001704000817040008170400080000000016
:1001800017040008170400083D5D00081704000864
:1001900017040008170400081704000817040008D3
:1001A00017040008170400081704000817040008C3
:1001B00017040008170400081704000817040008B3
:1001C00017040008170400081704000817040008A3
:1001D0001704000817040008170400081704000893
:1001E0001704000817040008170400081704000883
:1001F0001704000817040008170400081704000873
:100200001704000817040008170400081704000862
:100210001704000817040008170400081704000852
:100220001704000817040008170400080000000065
:100230001704000817040008000000001704000855
:100240001704000817040008170400081704000822
:100250001704000817040008170400081704000812
:100260001704000817040008170400081704000802
:100270001704000817040008170400080000000015
:100280001704000817040008170400080000000005
:10029000000000001704000800F002F800F03CF82D
:1002A0000AA090E8000C82448344AAF10107DA45D1
:1002B00001D100F031F8AFF2090EBAE80F0013F0E7
:1002C000010F18BFFB1A43F001031847F881000023
:1002D00018820000103A24BF78C878C1FAD85207B3
:1002E00024BF30C830C144BF04680C6070470000B0
:1002F0000023002400250026103A28BF78C1FBD82F
:10030000520728BF30C148BF0B6070471FB507F0C8
:100310006DFF1FBD10B510BD00F0D9F91146FFF7F4
:10032000F5FF06F071F900F0F7F903B4FFF7F2FFFB
:1003300003BC00F0FBF900002C4B19680868B0E81A
:10034000F04F80F30988BFF36F8F4FF0000080F308
:10035000118870470000000008480068006880F3BA
:1003600008884FF0000080F3148862B661B6BFF3CE
:100370004F8FBFF36F8F00DF00BF00BF08ED00E0BD
:10038000DFF80C00016841F470010160704700BFA4
:1003900088ED00E0EFF30980BFF36F8F134B1A680D
:1003A0001EF0100F08BF20ED108A20E9F04F1060FA
:1003B00009B44FF0500080F31188BFF34F8FBFF3A3
:1003C0006F8F07F07FF84FF0000080F3118809BCB1
:1003D00019680868B0E8F04F1EF0100F08BFB0ECC5
:1003E000108A80F30988BFF36F8F70471C000024C8
:1003F000EFF30580704700000A4880470A488047AD
:100400000A480047FEE7FEE7FEE7FEE7FEE7FEE7F5
:10041000FEE7FEE7FEE7FEE705480649064A074B0A
:10042000704700001D0D0008795A00089902000865
:10043000104F0024105500241051002410510024A6
:1004400053EA020C00F069802DE9F04B4FF00006F2
:10045000002B1FBFB3FA83F503FA05F424FA05F65F
:100460005E4012BF1643B2FA82F502FA05F4C5F1F6
:1004700020051EBF22FA05FC44EA0C04203556EA8A
:10048000044C4FEA144418BF641C4FF000084FF0AE
:100490000009904271EB030C39D3002919BFB1FA5E
:1004A00081F701FA07F6B0FA80F700FA07F6C7F10C
:1004B00020071EBF20FA07FC46EA0C062037B6FBD1
:1004C000F4FCA7EB0507103F07F01F0BCBF120064C
:1004D0000CFA0BFB2CFA06F644BFB3460026202F7D
:1004E000A4BF5E464FF0000B5BEA060C08BF4FF05E
:1004F000010B19EB0B09ABFB027C48EB0608C01B98
:1005000006FB02CC0BFB03CC71EB0C01C1E70B46E5
:10051000024641464846BDE8F08B13B54FF0000057
:100520004FF00001AFF30080BDE81C407047032A84
:1005300040F2308010F0030C00F0158011F8013B00
:10054000BCF1020F624498BF11F801CB00F8013BE7
:1005500038BF11F8013BA2F1040298BF00F801CBAB
:1005600038BF00F8013B11F0030300F02580083A82
:10057000C0F0088051F8043B083A51F804CBA0E8D9
:100580000810F5E7121D5CBF51F8043B40F8043B2E
:10059000AFF30080D20724BF11F8013B11F801CB63
:1005A00048BF11F8012B24BF00F8013B00F801CB34
:1005B00048BF00F8012B704710B5203AC0F00B80FF
:1005C000B1E81850203AA0E81850B1E81850A0E857
:1005D0001850BFF4F5AF5FEA027C24BFB1E81850B1
:1005E000A0E8185044BF18C918C0BDE810405FEA21
:1005F000827C24BF51F8043B40F8043B08BF70479D
:10060000D20728BF31F8023B48BF11F8012B28BFA1
:1006100020F8023B48BF00F8012B704702F0FF03AF
:1006200043EA032242EA024200F02CB84FF00002F3
:1006300000B5134694469646203922BFA0E80C50D8
:10064000A0E80C50B1F12001BFF4F7AF090728BFB3
:10065000A0E80C5048BF0CC05DF804EB890028BF2F
:1006600040F8042B08BF704748BF20F8022B11F058
:10067000804F18BF00F8012B7047704770477047D4
:100680004FF000020429C0F0128010F0030C3FF478
:10069000CFAFCCF1040CBCF1020F18BF00F8012B56
:1006A000A8BF20F8022BA1EB0C01FFF7C1BF5FEA46
:1006B000C17C24BF00F8012B00F8012B48BF00F8D3
:1006C000012B704700487047AC4E002470477546B8
:1006D000FFF7F8FFAE4605006946534620F00700D5
:1006E000854618B020B5FFF797FEBDE820404FF0D3
:1006F00000064FF000074FF000084FF0000B21F00C
:100700000701AC46ACE8C009ACE8C009ACE8C009D8
:10071000ACE8C0098D46704710B50446AFF30080C1
:100720002046BDE81040FFF700BE00000149182038
:10073000ABBEFEE726000200FEE7000090F8203086
:10074000DFED2F0A13B1C3698B4206D990ED060A7B
:1007500082EC020AC2ED020A7047C91A00EE101AB2
:100760009FED281AB8EE400A20EE010A90ED041A17
:10077000B4EEC01AF1EE10FA03D8002180F8201070
:10078000E4E7D0ED030A90ED021A60EE800A21EE54
:10079000001A60EE800A60EE800A41EE000A90EDD9
:1007A000011A41EE000A90ED001A70EE810AB0EED7
:1007B000081AC2ED000AD0ED030AD0ED021A60EE6D
:1007C000810A60EE800A20EE801AF0EE000A61EEE7
:1007D000A01A01EE801AD0ED011A31EE211AF1EEC5
:1007E000081A82ED011A90ED031A21EE211A21EE6A
:1007F000000A90ED021A01EE200A82ED020A70470B
:10080000000000006F12833A12EE102A204B9A4229
:1008100001DA9FED202A11EE902A1F4B9A4201DD4A
:10082000DFED1E1A1E4B11EE902A9A4201D9DFED20
:100830001D1A71EE402AB0EE083A80ED042A80EDD0
:10084000050A62EE833AB0EE003AF0EE612A80EDDE
:10085000061A40EE832AC161012180F8201042EE81
:10086000C23A62EE022A83EEA24A80ED024A80EC8E
:10087000020A30EE410A70EEA10A20EE030A00EEF1
:10088000820A62EE820A80EE201A80ED031A704717
:10089000CDCC4C3DCDCC4C3D48E1494248E14942AC
:1008A00048E149C248E149C2014800F0FDBE0000EC
:1008B000E8030024014800F0F7BE000060040024B3
:1008C000014800F0F1BE00007003002410B52A4A70
:1008D000016891423AD0284A1832914236D0264ACD
:1008E0003032914232D0244A483291422ED0224AAC
:1008F000603291422AD0204A7832914226D01E4A54
:100900009032914222D01C4AA83291421ED01B4AFA
:1009100091421BD0194A1832914217D0174A3032EF
:10092000914213D0154A483291420FD0134A603297
:1009300091420BD0114A7832914207D00F4A90323F
:10094000914203D00D4AA832914211D1CAB20C4C47
:100950001823103AB2FBF3F26FF3090102F0070318
:10096000032AE35CC36500D9091D8165084610BDF3
:1009700021F0FF01F9E700001000024010040240DE
:100980001C82000810B501680123224CCAB2A142A2
:100990001BD0204C1434A14217D01E4C2834A14245
:1009A00013D01C4C3C34A1420FD01A4C5034A142FD
:1009B0000BD0184C6434A14207D0164C7834A142B5
:1009C00003D0144C8C34A1420FD11421083AB2FB4D
:1009D000F1F1114A02EB810202660F4A01F01F0198
:1009E00080328B40C0E9192310BD1824103AB2FBA5
:1009F000F4F20A4C2144A82900D80832084901EB36
:100A00008201016606498031416602F01F018B4078
:100A1000836610BD0854025800580258F0FBFDBF11
:100A20000008024010B50279531E072B30D8194C2C
:100A30000168A1421BD0174C1434A14217D0154CA9
:100A40002834A14213D0134C3C34A1420FD0114C96
:100A50005034A1420BD00F4C6434A14207D00D4C4E
:100A60007834A14203D00B4C8C34A14206D10A4900
:100A700001EB8201C1660849443105E0074901EBF9
:100A80008201C166054944310167012199404167EE
:100A900010BD000008540258FC580258FC080240DF
:100AA000014610B500208B694FF0C0748A6A53B1BB
:100AB000B3F5005F15D072B1012A0CD0022A0AD01A
:100AC000032A09D104E01AB1012A06D0022A03D16F
:100AD000C96AC90100D5012010BDC96AA142FAD076
:100AE00010BD002AF7D0012AF2D0022AF3D0032A3F
:100AF000F3D010BD2DE9F04F834E834FDFF808C2CD
:100B00004836DFF80492DFF800A20CF1180CDFF889
:100B1000F8B109F13009DFF8F0E10AF1600A046880
:100B20000BF1780B856D0EF1900EBC426DD06445D3
:100B30006BD04C4569D0B44267D0544565D05C4514
:100B400063D0744561D0DFF8C08108F1A80844453E
:100B50005BD0DFF8B881444557D0DFF8B08108F1A9
:100B60001808444551D0DFF8A48108F13008444505
:100B70004BD0DFF8988108F14808444545D0DFF8AC
:100B80008C8108F1600844453FD0DFF8808108F18E
:100B90007808444539D0DFF8748108F1900844455D
:100BA00033D0DFF8688108F1A80844452DD0DFF87C
:100BB0006081444529D0DFF8588108F11408444584
:100BC00023D0DFF84C8108F1280844451DD0DFF818
:100BD000408108F13C08444517D0DFF8348108F122
:100BE0005008444511D0DFF8288108F164084445D5
:100BF0000BD0DFF81C8108F17808444505D0DFF8F8
:100C0000108108F18C08444509D1D0E91948C4F88D
:100C10000480C46E1CB1D0E91C48C4F80480046888
:100C2000BC422ED064452CD04C452AD0B44228D0AA
:100C3000544526D05C4524D0744522D0324EA83687
:100C4000B4421ED0314EB4421BD0304E1836B4429E
:100C500017D02E4E3036B44213D02C4E4836B44204
:100C60000FD02A4E6036B4420BD0284E7836B442AC
:100C700007D0264E9036B44203D0244EA836B44254
:100C800015D190F85C4004F01F063F24B440AC60DE
:100C90000468256825F4802525602EE09A600068A8
:100CA000C160BDE8F08F99600068C260F9E7184E36
:100CB000B4421BD0164E1436B44217D0144E283608
:100CC000B44213D0124E3C36B4420FD0104E5036C0
:100CD000B4420BD00E4E6436B44207D00C4E783678
:100CE000B44203D00A4E8C36B442DAD190F85C405C
:100CF00004F01F060124B4406C60046863608368DC
:100D0000402B0368CFD1C9E7100002401004024015
:100D100008540258704772B6FEE7000005480168A3
:100D200041F0020101600348083801688904FCD5DC
:100D3000704700000C480258014801F065BB0000F4
:100D400008010024014801F05FBB0000A801002455
:100D5000044810B501F058FBBDE81040024801F00E
:100D600053BB000008010024A801002430B503682B
:100D7000426B53F8844F4FF6FC718C4344EA820473
:100D80001C60036853F8844F058F24F47F0444EA01
:100D900005441C60836B1A440368D3F888408C4375
:100DA00044EA8204C3F88840036853F8884F858F6B
:100DB00024F4FE0444EA05441C60C36B02EB4302C6
:100DC0000368D3F8A0408C4344EA8204C3F8A040EF
:100DD000036853F8A04FB0F8405024F4FE0444EAEE
:100DE00005441C60D0E9103403FB04220368D3F8E7
:100DF000B0408C4344EA8204C3F8B040036853F81F
:100E0000B04FB0F8485024F4FE0444EA05441C6096
:100E1000D0E9123403FB04220368D3F8AC408C43BE
:100E200044EA8204C3F8AC40D0E9143403FB042242
:100E30000368D3F8F0408C4344EA8204C3F8F040DE
:100E4000036853F8F04FB0F8585024F47C1444EA87
:100E500005441C60836D02EB43030268D2F8C04076
:100E60008C4344EA8301C2F8C010016851F8C02FD6
:100E7000B0F85C3022F47C1242EA03420A60016856
:100E800051F8C02F90F8603022F07C5242EA0362A1
:100E90000A60416B234A02EB8101C166826B01EB60
:100EA00082020267C36B02EBC3024267D0E91034CF
:100EB000634302EB83028267D0E91234634302EB9F
:100EC0008302C267D0E91434634302EB8302C0F8A3
:100ED0008020836D02EBC302C0F88420C46D836E52
:100EE0005C4302EB8402C0F88820046E5C430E4B26
:100EF00002EB8402C0F890209A420AD9D0F89C10E4
:100F000041F02001C0F89C10032180F898100120C6
:100F100030BD002200E004C1D0F890308B42FAD8F6
:100F2000002030BD00AC0040FCD3004010B586B0BE
:100F3000044600200223059005A800901022206896
:100F400001A904F055FC059810280FD10E220020AD
:100F500001A905F044FBBDF81210884206D19DF8A6
:100F60000600227900F00F01914202D0002006B065
:100F700010BD000984F82600BDF90700DFED1E0A48
:100F800000EE100AB0EE001B9FED1E3BB8EEC00A4B
:100F900020EE200A84ED060ABDF9090000EE100AD1
:100FA000B8EEC00B20EE012B9FED140B22EE002BB0
:100FB00022EE032B9FED153BB7EEC22B84ED072AE3
:100FC000DDF80B0002EE100AB8EEC22B22EE032B66
:100FD00022EE011B21EE000BB7EEC00B84ED080AD8
:100FE0009DF80F0084F82400BDF8100000F0070001
:100FF00084F825000120BAE70000803BEA2E445423
:10100000FB210940000000000000703F00000000CC
:101010000000003FB7EEC04A9FED273B10B50446E5
:101020004EF6FE600F22611DA4F8050024EE034B6E
:10103000207900F00F0040F01000E071BDEEC40B0D
:1010400010EE100AB7EEE00A208120EE033B9FED80
:101050001C0B83EE004BB7EEC13AB7EEE11AFDEE82
:10106000C42B9FED194B23EE043B12EE900A6081D6
:1010700083EE004BBDEEC40B84ED030A9FED140B11
:1010800021EE001BBCEEC11B11EE100AB7EEC21A16
:10109000208221EE000BBCEEC00B10EE100A608225
:1010A000002005F09CFA0223A08211222068611D15
:1010B000BDE8104004F034BC0000000000007040A7
:1010C000F1D4C853FB211940000000000000E040AB
:1010D00000000000000094402DE9F84F044601F0A4
:1010E000C7FD009034B194F83500022805D0802067
:1010F0006065EBE00120BDE8F88FCC4ECB4FCB49CB
:101100001836DFF828833037DFF82093DFF81CA388
:1011100008F14808DFF814B309F1600920680AF102
:10112000780A0BF1900B88422ED0B0422CD0B842F6
:101130002AD0404528D0484526D0504524D058458F
:1011400022D0BA4AA83290421ED0B94A90421BD04F
:10115000B74A1832904217D0B54A3032904213D075
:10116000B34A483290420FD0B14A603290420BD01D
:10117000AF4A7832904207D0AD4A9032904203D0C5
:10118000AB4AA832904209D1026822F01E020260E6
:101190002068426922F08002426103E0026822F086
:1011A0000E02026025688D4228464DD0B0424BD0D9
:1011B000B84249D0404547D0484545D0504543D036
:1011C000584541D0994AA83290423DD0984A904221
:1011D0003AD0974A1832904236D0954A30329042EF
:1011E00032D0934A483290422ED0914A6032904297
:1011F0002AD08F4A7832904226D08D4A903290423F
:1012000022D08B4AA83290421ED08A4A90421BD0EC
:10121000884A1432904217D0864A2832904213D01E
:10122000844A3C3290420FD0824A503290420BD0D6
:10123000804A6432904207D07E4A7832904203D08E
:101240007C4A8C32954204D1206E026822F480726E
:10125000026076492068884228D0B04226D0B84241
:1012600024D0404522D0484520D050451ED0584576
:101270001CD06E49A831884218D06D49884215D0DB
:101280006B491831884211D06949303188420DD0FC
:1012900067494831884209D065496031884205D0A4
:1012A00063497831884201D061499031016821F069
:1012B000010101600EE001F0DBFC0099401A0528F5
:1012C00008D920206065032084F83500002084F8C8
:1012D00034000FE72868C007EDD1544A0121206887
:1012E00090422ED0B0422CD0B8422AD0404528D0CF
:1012F000484526D0504524D0584522D04B4BA833E2
:1013000098421ED04A4B98421BD0494B1833984202
:1013100017D0474B3033984213D0454B483398424F
:101320000FD0434B603398420BD0414B78339842F7
:1013300007D03F4B9033984203D03D4BA83398429F
:1013400008D194F85C30A06D03F01F053F23AB403B
:10135000836007E094F85C30A06D03F01F0301FA8E
:1013600003F34360206890424DD0B0424BD0B84266
:1013700049D0404547D0484545D0504543D05845D1
:1013800041D02A4AA83290423DD0294A90423AD0D0
:10139000274A1832904236D0254A3032904232D015
:1013A000234A483290422ED0214A603290422AD0BD
:1013B0001F4A7832904226D01D4A9032904222D065
:1013C0001B4AA83290421ED01A4A90421BD0194A9A
:1013D0001432904217D0174A2832904213D0154A3F
:1013E0003C3290420FD0134A503290420BD0114AF7
:1013F0006432904207D00F4A7832904203D00D4AAF
:101400008C3290420BD1D4E919024260E06E30B1C7
:10141000026822F480720260D4E91C02426084F8FF
:101420003510002084F8340065E60000100002400A
:1014300010040240085402582DE9F05F28B190F8DA
:101440003510022904D0802141650120BDE8F09FBC
:10145000914A914B914D1832904E3033DFF838C29B
:101460001835DFF834E24836DFF83092DFF82CA286
:101470000EF1600EDFF824B209F1300901680AF1BB
:10148000600A864C0BF1A80B614529D0914227D008
:10149000994225D0804F4837B94221D071451FD09D
:1014A0007D4F7837B9421BD07B4F9037B94217D068
:1014B000794FA837B94213D0A14211D0A9420FD019
:1014C00049450DD0B1420BD0514509D0734F783703
:1014D000B94205D0714F9037B94201D059452FD14B
:1014E000042780F83570614525D0914223D0994278
:1014F00021D06948483081421DD071451BD06648D3
:101500007830814217D064489030814213D06248CD
:10151000A83081420FD0A1420DD0A9420BD049453D
:1015200009D0B14207D0514505D05C48783081429E
:1015300001D05A489030086820F001000860A8E007
:10154000D1F8008028F00E08C1F800800168E0465C
:1015500041452BD0914229D0994227D0DFF838C19C
:101560000CF1480C614521D071451FD0DFF828C12E
:101570000CF1780C614519D0DFF81CC10CF1900C0E
:10158000614513D0DFF810C10CF1A80C61450DD0F6
:10159000A1420BD0A94209D0494507D0B14205D09C
:1015A000514503D0DFF8F4C00CF1780CD1F800C03D
:1015B0002CF0010CC1F800C001684FF0010C41454E
:1015C00046D0914244D0994242D0334A4832914267
:1015D0003ED071453CD0304A7832914238D02E4AC4
:1015E0009032914234D02C4AA832914230D0A1425C
:1015F0002ED0A9422CD049452AD0B14228D05145FD
:1016000026D0264A7832914222D0B94220D059457C
:101610001ED0234A91421BD0214A1432914217D046
:101620001F4A2832914213D01D4A3C3291420FD0BA
:101630001B4A503291420BD0194A6432914207D072
:10164000174A7832914203D0154A8C32914218D110
:10165000016E0A6822F480720A6090F85C20816D45
:1016600002F01F020CFA02F24A60D0E919124A6035
:10167000C16E31B10A6822F480720A60D0E91C128E
:101680004A6080F835C0002180F83410016D01B146
:1016900088470020DAE600001000024010040240F3
:1016A00008540258406D70472DE9FC5F0446002045
:1016B00000904FF41651F9480068B0FBF1F001902A
:1016C000A56D2E682A68F64FDFF8D483DFF8D0A323
:1016D000DFF8CCB308F1180820680AF1300ADFF807
:1016E000C4930BF1480BB84238D04146884235D0FC
:1016F000504533D0584531D0E949603188422DD02A
:10170000E7497831884229D0E5499031884225D08F
:10171000E349A831884221D048451FD0E14918311A
:1017200088421BD0DF493031884217D0DD4948312B
:10173000884213D0DFF86CE30EF1600E70450DD0D7
:10174000D84B7833984209D0DFF858C30CF1900C8D
:10175000604503D0D349A83188427DD194F85C100C
:10176000082301F01F0103FA01F232424CD0B842C3
:1017700033D0404531D050452FD058452DD0C849A1
:101780006031884229D0C6497831884225D0C44981
:101790009031884221D0C249A83188421DD04845A5
:1017A0001BD0C0491831884217D0BE493031884219
:1017B00013D0BC49483188420FD0BA4960318842C1
:1017C0000BD0B8497831884207D0B6499031884269
:1017D00003D0B449A831884203D1016801F0040163
:1017E00002E0016801F0080171B1016821F0040113
:1017F000016094F85C0000F01F0003FA00F2AA6098
:10180000606D40F00100606594F85C00012100F01B
:101810001F008140314241D02068B84235D0404558
:1018200033D0504531D058452FD09D4A6032904238
:101830002BD09B4A7832904227D0994A90329042DE
:1018400023D0974AA83290421FD048451DD0954AD0
:101850001832904219D000E0B3E1924A30329042FF
:1018600013D0904A483290420FD08E4A6032904254
:101870000BD08C4A7832904207D08A4A90329042FC
:1018800003D0884AA83290427ED1406910F0800F80
:1018900004D0A960606D40F00200606594F85C00BF
:1018A000042100F01F00814031423FD02068B8423F
:1018B00033D0404531D050452FD058452DD0784AAF
:1018C0006032904229D0764A7832904225D0744ACC
:1018D0009032904221D0724AA83290421DD04845A1
:1018E0001BD0704A1832904217D06E4A3032904264
:1018F00013D06C4A483290420FD06A4A603290420C
:101900000BD0684A7832904207D0664A90329042B3
:1019100003D0644AA83290424FD1006810F0020F01
:1019200004D0A960606D40F00400606594F85C002C
:10193000102100F01F008140314259D02068B84288
:1019400035D0404533D0504531D058452FD0544A3A
:10195000603290422BD0524A7832904227D0504A7F
:101960009032904223D04E4AA83290421FD0484530
:101970001DD04C4A1832904219D04A4A3032904217
:1019800015D0484A483200E015E090420FD0454A51
:10199000603290420BD0434A7832904207D0414A9D
:1019A0009032904203D03F4AA832904207D100685B
:1019B00000F0080006E0006870E70068B6E700681D
:1019C00000F00400A0B1A96020680168490304D5B3
:1019D0000068000308D5A16C07E00168C90503D4BD
:1019E000016821F008010160216C09B12046884797
:1019F00094F85C00202100F01F008140314278D033
:101A00002068B84233D0404531D050452FD058459A
:101A10002DD0234A6032904229D0214A7832904218
:101A200025D01F4A9032904221D01D4AA8329042C0
:101A30001DD048451BD01B4A1832904217D0194A76
:101A40003032904213D0174A483290420FD0154A94
:101A5000603290420BD0134A7832904207D0114A3C
:101A60009032904203D00F4AA832904203D10068CE
:101A700000F0100002E0006800F00200A0B3A960CE
:101A800094F835000428206801680DD049037CD5FE
:101A90000068000329D4616C28E0000014000024D1
:101AA000100002401004024021F01601016020687D
:101AB000416921F080014161206C08B9A06C20B11E
:101AC0002068016821F00801016094F85C0000F0D2
:101AD0001F013F208840A860012084F835000020C5
:101AE00084F83400216D65E003E0E16B09B1204624
:101AF0008847606D00287DD0606DC00759D00420F4
:101B000084F835002068B8422BD0404529D0504594
:101B100027D0584525D09E49884222D09C4918316B
:101B200088421ED09A49303188421AD098494831AB
:101B3000884216D0484514D09649884211D095491C
:101B4000183188420DD093493031884209D09149EB
:101B50004831884205D08F496031884201D08D4993
:101B60007831016821F00101016021680098019A33
:101B7000401C0090904202D80868C007F6D108685F
:101B8000C00710D003200FE0FFE70168C905ACD4FF
:101B9000016821F010010160012084F83500002067
:101BA00084F83400A1E7012084F83500002084F88F
:101BB0003400E16C00291DD002B02046BDE8F05F82
:101BC0000847754988421DD073491431884219D09D
:101BD00071492831884215D06F493C31884211D073
:101BE0006D49503188420DD06B496431884209D02B
:101BF000694900E084E07831884203D066498C313D
:101C000088427DD101684FF0040894F85C6006F0CA
:101C10001F0608FA06F818EA020FCDF8008047D030
:101C20005FEA417844D500986860080403D5C8038A
:101C30003CD4A16CBEE7880638D42068B8422DD0C9
:101C400053494839884229D0504527D0584525D096
:101C50004F49884222D04E49183188421ED04C4903
:101C6000303188421AD04A494831884216D0484516
:101C700014D04849884211D04649183188420DD0C5
:101C800044493031884209D0704507D0984205D088
:101C9000604503D03F499031884203D1016821F06B
:101CA000080102E0016821F004010160216C81E774
:101CB0004FF0020808FA06F818EA020FCDF8008083
:101CC0004FD05FEA81784CD500986860080403D54E
:101CD000C80344D4616C6DE7880640D42068B842DC
:101CE0002FD02B49483988422BD0504529D0584510
:101CF00027D02749884224D025491831884200E05E
:101D000043E01ED02249303188421AD02049483160
:101D1000884216D0484514D01E49884211D01D492A
:101D2000183188420DD01B493031884209D07045A6
:101D300007D0984205D0604503D0164990318842BB
:101D400003D1016821F0140102E0016821F00A01C9
:101D50000160012084F83500002084F83400E16B34
:101D600028E70823B34013420FD009070DD50168B7
:101D700021F00E01016094F85C0000F01F010120C9
:101D800000FA01F1696060650EE7BDE8FC9F0000A4
:101D90007000024028040240085402582DE9F05F08
:101DA000044600F065FF0646F4B3E24F0222DFF876
:101DB00084830025DFF87C93DFF878A308F13008EE
:101DC000DFF870B309F1480920680AF1600A0BF1E5
:101DD000780BB84234D0D7491831884230D04045CA
:101DE0002ED048452CD050452AD0584528D0D1492E
:101DF0009031884224D0CF49A831884220D0CE49A2
:101E000088421DD0CC491831884219D0CA49303196
:101E1000884215D0C8494831884211D0C64960313E
:101E200088420DD0C44900E042E07831884207D0B2
:101E3000C1499031884203D0BF49A83188427CD142
:101E400084F83520B84284F834502CD0B949183180
:101E5000884228D0404526D0484524D0504522D03D
:101E6000584520D0B349903188421CD0B149A8319F
:101E7000884218D0B049884215D0AF4918318842FD
:101E800011D0AD49303188420DD0AB49483188423C
:101E900009D0A9496031884205D0A74978318842E4
:101EA00001D0A5499031016821F00101016009E0EC
:101EB0000120BDE8F09F00F0DBFE801B052801D962
:101EC000202015E120680068C007F4D1226811685D
:101ED0009A480140D4E902031843D4E90436334355
:101EE0001843A3691843E3691843236A1843084356
:101EF000616A042903D1D4E90B13194308439049BB
:101F000009686FF30F01B1F1005F0FD36168A1F1B0
:101F10002903052B08D9163B032B05D9083B012BB8
:101F200002D94F39032901D840F48010106020688D
:101F3000406920F00701606A00E01CE0042840EAE4
:101F400001060BD1A06A0643E06A38B12046FEF7CD
:101F5000A7FD18B1402060650120CBE020684661F4
:101F60002046FEF7B3FC94F85C1001F01F023F21FD
:101F70009140816056E0734988421BD0714B143305
:101F8000984217D06F4B2833984213D06D4B3C3397
:101F900098420FD06B4B503398420BD0694B64334F
:101FA000984207D0674B7833984203D0654B8C3307
:101FB00098427DD1884201D06249143184F835209D
:101FC00084F83450026860490A40A168402970D002
:101FD00080296FD00021E36841EAD301236941EAF7
:101FE000D301636941EAD301A36941EAD301E369FB
:101FF00041EAD301236A41EA1311114301605149B7
:102000002068494208441421B0FBF1F08000E065EB
:102010002046FEF75BFC94F85C1001F01F020121E2
:10202000914041602068B84255D0424918318842F9
:1020300051D040454FD048454DD050454BD05845E4
:1020400049D03C499031884245D03A49A83188422C
:1020500041D0394988423ED03749183188423AD078
:1020600035493031884236D033494831884232D000
:102070003149603188422ED02F49783188422AD0A8
:102080002D499031884226D02B49A831884222D050
:102090002C4988421FD02B49143188421BD0294932
:1020A0002831884217D027493C31884213D002E0BA
:1020B0001DE017E018E02349503188420BD0214938
:1020C0006431884207D01F497831884203D01D49C6
:1020D0008C31884228D12046FEF754FCA068802825
:1020E0000BD00BE0102176E74FF4804173E74020DE
:1020F0006065032084F83500DAE66560216E20799A
:102100000860D4E9190141606068401E072808D8BA
:102110002046FEF787FCE06E0560D4E91C014160B3
:1021200002E0E566256765676565012084F835008E
:102130000020BEE610000240100402403F8010FE66
:102140000010005C085402580F00FEFF2DE9F84F04
:1021500004004FF00000009014D094F834000128DF
:1021600012D0012084F8340094F835500020012D5D
:102170000CD04FF40061616584F8340001200090B8
:10218000BDE8F88F0120FBE70220F9E7022584F87B
:1021900035506065974D974E964F1835DFF854C20D
:1021A0003036DFF850824837DFF84892DFF844A233
:1021B00008F16008DFF83CB209F1780920680AF1FB
:1021C000900A0BF1A80B604533D0A84231D0B04241
:1021D0002FD0B8422DD040452BD0484529D050456E
:1021E00027D0584525D0DFF810C2604521D0DFF850
:1021F00008C20CF1180C60451BD0DFF8FCC10CF1D3
:10220000300C604515D0DFF8F0C10CF1480C60458A
:102210000FD0DFF8E4C10CF1600C604509D0DFF8A5
:10222000D8C10CF1780C604503D0DFF8CCC10CF1BB
:10223000900CD0F800C02CF0010CC0F800C0204673
:10224000FEF758FC6B49206888422CD0A8422AD05F
:10225000B04228D0B84226D0404524D0484522D0AC
:10226000504520D058451ED0634A90421BD0624A48
:102270001832904217D0604A3032904213D05E4AF2
:10228000483290420FD05C4A603290420BD05A4A9A
:102290007832904207D0584A9032904203D0564A42
:1022A000A83290420CD1026822F01E0242F01602BF
:1022B0000260206C88B12068026842F008020BE0DE
:1022C000026822F00E0242F00A020260206C20B185
:1022D0002068026842F004020260206888424BD005
:1022E000A84249D0B04247D0B84245D0404543D03B
:1022F000484541D050453FD058453DD03E4A904298
:102300003AD03D4A1832904236D03B4A3032904261
:1023100032D0394A483290422ED0374A6032904209
:102320002AD0354A7832904226D0334A90329042B1
:1023300022D0314AA83290421ED0304A90421BD05F
:102340002E4A1432904217D02C4A2832904213D091
:102350002A4A3C3290420FD0284A503290420BD049
:10236000264A6432904207D0244A7832904203D001
:10237000224A8C3290420DD1206E0268D20303D5DE
:10238000026842F480720260E06E18B1026842F4A2
:10239000807202602068884226D0A84224D0B042D1
:1023A00022D0B84220D040451ED048451CD05045D0
:1023B0001AD0584518D01049884215D00E49183106
:1023C000884211D00C49303188420DD00A49483139
:1023D000884209D008496031884205D006497831E1
:1023E000884201D004499031016841F00101016047
:1023F0000098C5E61000024010040240085402583C
:1024000070477047704770472DE9FE4FB34F044641
:1024100038688007391D096800EA817B2068016DF2
:10242000426D01F470410A400292016D426D01F06B
:102430000F0102EA010A016D426D01F0F0010A404C
:102440000192016D426D01F0715102EA0108016DC6
:10245000426D01F060710A400092416D056D4FF0D0
:102460000009CE43F10509D4E943C90506D4B915DD
:102470000165C7F800902046FFF7C5FF700510D42E
:10248000E84340050DD42068D0F8DC20D0F8E410F3
:1024900011404FF480620265C7F80090204600F0BA
:1024A000E8FABBF1000F0BD08D490BEA010021685F
:1024B00008654FEA9B70386059462046FFF7A0FF39
:1024C000029850B186490840216808650298800F3B
:1024D00038600299204600F0CEFABAF1000F0BD016
:1024E0007F490AEA0100216808654FEA9A7038605E
:1024F0005146204600F0B5FA019850B1784908409D
:10250000216808650198800F38600199204600F025
:10251000A9FA30050BD4E843000508D421684FF42C
:1025200000600865C7F80090204600F0A5FAB005E5
:1025300010D4E84380050DD42068D0F8D820D0F816
:10254000E01011404FF400720265C7F80090204679
:1025500000F090FA30030BD4E843000308D421685C
:102560004FF400200865C7F80090204600F078FA84
:10257000F0030BD4E843C00308D421684FF4803043
:102580000865C7F80090204600F072FA70030BD47B
:10259000E843400308D421684FF480200865C7F859
:1025A0000090204600F063FAB0030ED4E8438003A5
:1025B0000BD421684FF400300865C7F80090D4F8B8
:1025C0009C0040F08000C4F89C00009850B1444941
:1025D0000840216808650098800F386000992046FF
:1025E000FFF710FFB8F1000F0DD03D4908EA0100D8
:1025F000216808654FEA98703860D4F89C0040EA7A
:102600000800C4F89C003749206888425CD16068A3
:102610008168890758D0016A01F00F02416A1140B0
:10262000026A476A02F0300207EA0207026A436A56
:1026300002F4C07203EA0208026A456A02F4FC422C
:1026400005EA0205026A466A02F4F022D0F82490F4
:1026500006EA0206D0F820A003D00162204600F06E
:1026600003FA2FB1606807623946204600F0FEF990
:102670006FEA090040060ED46FEA0A0040060AD449
:102680006068C16BC26B090C4023036202F03F0219
:10269000204600F0EAF9B8F1000005D06168086250
:1026A0004146204600F0DFF935B160680562D4F894
:1026B0009C002843C4F89C0036B160680662D4F8D8
:1026C0009C003043C4F89C00D4F89C00002802D041
:1026D0002046FFF796FEBDE8FE8F000010A80040E0
:1026E000FFFFCF3F00A000402DE9F04194B08D499D
:1026F0004C2204466846FDF75FFF64B18A4E2068AD
:10270000B04202D100F58070606094F898004FF0FC
:10271000000820B108E0012014B0BDE8F081204697
:1027200084F8998000F002F92068816921F0100195
:10273000816100F09DFA0327054604E000F098FA55
:10274000401B0A2811D8206880690007F6D4206849
:10275000816941F00101816100F08AFA05460DE0CE
:1027600000F086FA401B0A2808D9D4F89C0040F0F3
:102770000100C4F89C0084F89870CCE72068806958
:10278000C007EDD02068816941F002018161207CA1
:1027900001282068816937D041F040018161607C67
:1027A00001282068816932D021F480418161A07CB8
:1027B0000128206881692DD041F480518161206811
:1027C0008169A26821F440711143816120688169A7
:1027D00021F0A40181612068016921F010010161EB
:1027E000E068012819D010B302281BD02068816945
:1027F00041F0800181612068016941F010010161AF
:10280000E06803280ED012E021F04001C6E741F451
:102810008041CBE721F48051D0E72068816941F005
:10282000040103E02068816941F020018161207E7C
:102830006FF0FF02E169A38A400602EB0121A0F1DB
:1028400000700843216A491E0843110201EB03434B
:1028500018432368D861A068B0F5407F10D1D4E94F
:102860000A03401E02EB03221043226B0B1303EBFF
:1028700002121043A28C01EB024108432168C86098
:10288000206E30B12068D0F8C010626E1143C0F8DD
:10289000C010D4E91701C842694609D0206850F831
:1028A000C82FA36E22F0070251F823301A430260AA
:1028B000206C48B1206850F8BC2F636C22F00702EE
:1028C00051F823301A430260A06C50B1206850F8D0
:1028D000BC2FE36C22F0700251F8233042EA03125D
:1028E0000260206D50B1206850F8BC2F636D22F457
:1028F000E06251F8231042EA012101602068B042F1
:1029000004D16068816821F003018160C4F894807B
:10291000C4F89C80012084F898002046FEF726FA2F
:10292000FAE600003482000800A000402DE9F043E0
:10293000B7B00446142130A8FDF778FEC0216846E0
:10294000FDF774FE424D00263F494FF0805220684B
:102950000C3D3E4F4FF002083D4C88424FF00909B4
:1029600030D100201C925113CDE90010684600F0D0
:10297000C5FB08B1FEF7CFF93868401C3860012864
:1029800007D1206840F480702060206800F48070D7
:102990003590286840F008002860286830A900F0C9
:1029A0000800359003203090CDE931862948CDE9E3
:1029B000336900F063F800220521132000F0F6F9D6
:1029C000132033E0244988423AD100201C924FF46E
:1029D0000041CDE90010684600F090FB08B1FEF719
:1029E0009AF93868401C3860012807D1206840F403
:1029F00080702060206800F480703590286840F076
:102A000002002860286830A900F00200359060209C
:102A10003090CDE931861148CDE9336900F02EF8C8
:102A200000220521162000F0C1F9162000F0B0F9AF
:102A3000002205213F2000F0B9F93F2000F0A8F95D
:102A400037B0BDE8F083000000A00040040000247F
:102A5000EC440258000C025800A400400004025844
:102A600070477047704770477047704770477047AE
:102A70007047704770477047704700002DE9F84F66
:102A8000694C00224FF0B04A4FF0010B4FF00308A1
:102A90004FF00F09C0E00BFA02F6334073D00D7906
:102AA00005F00305012D01D0022D15D187685500D1
:102AB00008FA05FC27EA0C07D1F80CC00CFA05FC53
:102AC0004CEA070CC0F808C04568B5430E79C6F358
:102AD000001696402E4346600D79ED43AD0708D0B1
:102AE000C668550008FA05F7BE438F68AF40374304
:102AF000C7600D7905F00305022D11D1D50800EB53
:102B000085073E6A5507ED0E09FA05FC26EA0C0614
:102B1000D1F810C00CFA05FC4CEA060CC7F820C02E
:102B20000668550008FA05F7BE430F7907F003075A
:102B3000AF40374307604D6815F4403F6BD03B4DC5
:102B40002E6846F002062E602D6822F0030606F17C
:102B5000B04605F002050095D6F8087495074FEACF
:102B6000157C09FA0CF5AF43314DA84201D100257F
:102B70002EE0304DA84201D1012529E02E4DA8427A
:102B800002D1022524E046E02C4DA84201D10325C4
:102B90001EE02B4DA84201D1042519E0294DA84281
:102BA00001D1052514E0284DA84201D106250FE0EA
:102BB000264DA84201D107250AE0254DA84201D1A2
:102BC000082505E0234DA84201D1092500E00A258A
:102BD00005FA0CF53D43C6F80854DAF8005056469D
:102BE0004F689D43FF0200D51D43356075684F68EF
:102BF0009D43BF0200D51D43756065684E689D43C7
:102C0000B60300D51D43656025684E689D43F603F5
:102C100000D51D432560521C0B6833FA02F57FF482
:102C20003AAFBDE8F88F000080000058F444025825
:102C3000000002580004025800080258000C025814
:102C4000001002580014025800180258001C0258C4
:102C500000200258002402580AB18161704709041B
:102C6000FBE7000001480068000C70470010005CA2
:102C7000014880687047000008000024024881680D
:102C8000027811448160704708000024032010B5C9
:102C900000F0ACF801F0B4F80F4A11681268C1F303
:102CA00003230E49CB5C03F01F03D84002F00F0250
:102CB000895C0B4A01F01F0120FA01F111600949FA
:102CC00008600F2000F010F808B1012010BD00F0DE
:102CD0004DF8002010BD000018440258A8820008DA
:102CE000180000241400002410B5102804468AB0EF
:102CF0002AD200220146192000F058F8192000F0CD
:102D000047F8154804601548016841F00101016069
:102D1000006808A900F001000990684600F0FAFF79
:102D200001F05CF80E4940000E4AB0FBF1F10E488C
:102D3000026040F2E732491E41600021C0E90321F0
:102D4000816001F0F6FB10B101200AB010BD064809
:102D500001F022FCF9E700000C000024F0440258C6
:102D600040420F0000000140D8040024074882B010
:102D7000016841F002010160006800220F2100F0AB
:102D800002000090901E02B000F010B8F444025807
:102D9000002809DB012100F01F029140400980005A
:102DA00000F1E020C0F80011704700000E4BF0B4B5
:102DB0001B68C3F30223C3F10704042C00D90424C5
:102DC0001D1D072D01D2002300E0DB1E012606FA9F
:102DD00004F56D1E0D409D409E40761E164045EA4E
:102DE0000601F0BC03F0EBBB0CED00E0064A00F07E
:102DF000070110684FF6FF03184040EA012003491D
:102E000008431060704700000CED00E00000FA0578
:102E1000124970B50A68D243520705D5096801F016
:102E20000701814212D117E00A6822F0070202432B
:102E30000A60FFF71DFF094D4FF47A760446083DFE
:102E400006E0FFF715FF001BB04201D9012070BD5D
:102E50002868C0438004F4D4002070BD0C48025898
:102E600010B500F087FF05490968054AC1F3021152
:102E7000515C01F01F01C84010BD00002044025801
:102E8000A8820008484910B50A68096802F00302E0
:102E9000454B1B1DC1F305311B68434C1434C3F370
:102EA00000132468C4F3CC0414FB03F300EE103ABF
:102EB000B8EE400AE9B33C4B9FED3C1A1033F7EEF5
:102EC000000A62B1DFED3A1A012A01D0022A5ED06F
:102ED00002EE101AF8EE422A81EEA22A1AE0324AD5
:102EE000283A1468A4060DD51268C2F3C104314A09
:102EF000E24001EE902AF8EE612A01EE901AF8EE17
:102F0000611A05E001EE901ADFED2B2AF8EE611A46
:102F100082EEA12A1968C1F3080101EE901A19681E
:102F2000F8EE611A40EE011A31EEA00A22EE000A14
:102F300000E033E0C1F3462101EE101AB8EE411A69
:102F400031EE201AC0EE011ABCEEE11A80ED001A33
:102F50001968C1F3064101EE101AB8EE411A31EEBC
:102F6000201AC0EE011ABCEEE11A80ED011A1968B0
:102F7000C1F3066101EE101AB8EE411A71EE200A93
:102F800080EE201ABCEEC10A80ED020A10BD01EEEF
:102F9000901ADFED0A2AF8EE611AB9E70021016004
:102FA0004160816010BD00002844025800000039D3
:102FB0000024744A0090D0030024744C20BCBE4B03
:102FC000484910B50A68096802F00302454B1B1D09
:102FD000C1F305511B68434C1C34C3F30023246820
:102FE000C4F3CC0414FB03F300EE103AB8EE400A2D
:102FF000E9B33C4B9FED3C1A1833F7EE000A62B17F
:10300000DFED3A1A012A01D0022A5ED002EE101A30
:10301000F8EE422A81EEA22A1AE0324A283A1468CF
:10302000A4060DD51268C2F3C104314AE24001EE94
:10303000902AF8EE612A01EE901AF8EE611A05E086
:1030400001EE901ADFED2B2AF8EE611A82EEA12A2A
:103050001968C1F3080101EE901A1968F8EE611AB7
:1030600040EE011A31EEA00A22EE000A00E033E041
:10307000C1F3462101EE101AB8EE411A31EE201AC2
:10308000C0EE011ABCEEE11A80ED001A1968C1F316
:10309000064101EE101AB8EE411A31EE201AC0EEC8
:1030A000011ABCEEE11A80ED011A1968C1F306613C
:1030B00001EE101AB8EE411A71EE200A80EE201AC5
:1030C000BCEEC10A80ED020A10BD01EE901ADFEDE0
:1030D0000A2AF8EE611AB9E70021016041608160B7
:1030E00010BD000028440258000000390024744A32
:1030F0000090D0030024744C20BCBE4B2DE9FC5F33
:10310000044600680025FA4FC043DFF8E8832E46E6
:10311000010104F10800019004F1280000901DD481
:10312000A06E50B1B0F5801F0CD0B0F5001F0ED0CE
:10313000B0F5401F1ED001250FE0386840F4003084
:10314000386017E00198022102F01CFA03E00098B1
:10315000022102F0A1FA05000CD02E462088C043BF
:10316000C00523D4A06D05281ED2DFE800F00C11A5
:10317000161B1B00D8F80010A26E21F44011114359
:10318000C8F80010EAE7386840F40030386009E019
:103190000198002102F0F6F903E00098002102F006
:1031A0007BFA054675B100E001252E462088C04314
:1031B000800528D4E06D80281ED00CDC90B140281A
:1031C0000ED114E0D8F80010A26D21F007011143D0
:1031D000C8F80010EAE7C02813D0B0F5807F10D0FF
:1031E00001250FE0386840F40030386009E00198AC
:1031F000002102F0C7F903E00098002102F04CFA28
:1032000005468DB12E462088DFF8EC92C04340057C
:103210002CD4D4F8A800B0F5800F20D00DDCA0B1DC
:10322000B0F5001F0FD115E0D8F80010E26D21F4C1
:10323000E0711143C8F80010E5E7B0F5C00F13D0F6
:10324000B0F5000F10D001250FE0386840F40030D1
:10325000386009E00198002102F094F903E0009839
:10326000002102F019FA05467DB12E462088C043A0
:1032700000052DD4D4F8AC00B0F1007F21D00EDCD5
:10328000A8B1B0F1807F10D116E0D9F80010D4F8C1
:10329000A82021F460011143C9F80010E6E7B0F15D
:1032A000407F13D0B0F1806F10D001250FE0386857
:1032B00040F40030386009E00198002102F062F922
:1032C00003E00098002102F0E7F9054675B12E46AB
:1032D0002068C04380011FD4E06CD8B110280FD003
:1032E000202812D0302815D0012514E0D9F800107C
:1032F000D4F8AC2021F0E0611143C9F80010E7E7F1
:10330000386840F40030386004E00198022102F08F
:1033100039F9054675B12E462088C043C0042BD428
:10332000206EB0F5005F20D00DDCA0B1B0F5805F5D
:103330000FD115E06F48001F0168E26C21F03001E9
:1033400011430160E8E7B0F5405F13D0B0F5804F5E
:1033500010D001250FE0386840F40030386009E0F3
:103360000198002102F00EF903E00098002102F01C
:1033700093F905468DB12E462088C043800429D498
:10338000606EB0F5403F23D010DC08B3B0F5803F4D
:1033900014D0B0F5003F0FD115E0D8F80010226E20
:1033A00021F4E0411143C8F80010E5E7B0F5802FA3
:1033B0000ED0B0F5A02F0BD001250AE00198012115
:1033C00002F0E0F803E00098012102F065F90546FB
:1033D00095B12E462088C04340042AD4D4F8B000CA
:1033E000B0F1405F23D010DC08B3B0F1805F14D09F
:1033F000B0F1005F0FD115E0D8F80010626E21F433
:10340000E0211143C8F80010E4E7B0F1804F0ED07E
:10341000B0F1A04F0BD001250AE00198012102F084
:10342000B1F803E00098012102F036F9054675B1C4
:103430002E462088C04300041FD4206FD8B1B0F1BD
:10344000805F0ED0B0F1005F10D0012514E0D9F8F4
:103450000010D4F8B02021F0E0411143C9F8001069
:10346000E7E7386840F40030386004E00198012153
:1034700002F088F8054675B12E462068C043C001A9
:103480001ED4A06CD0B101280ED0022811D0032880
:1034900014D0012513E0D8F80010226F21F040511C
:1034A0001143C8F80010E8E7386840F4003038608D
:1034B00004E00198022102F065F805467DB12E4630
:1034C0002068DFF838B0C043400256D40C48016889
:1034D00041F480710160FFF7CBFB824618E005489C
:1034E000001F0168A26C21F0030111430160E7E7AE
:1034F0002C44025850440258584402581044025870
:1035000000480258FFF7B4FBA0EB0A0064282CD84F
:10351000FE480068C005F5D545BBFD480068B4F815
:10352000B41000F4407001F4407188420CD0F848A7
:103530000168026821F4407142F48032026002683E
:1035400022F4803202600160D4F8B400B0F5807FCC
:103550001AD1FFF78DFB824609E0FFF789FBA0EB4C
:103560000A0141F28830814201D9032504E0E8488C
:1035700000688007F1D53DB12E462078DFF894A38E
:10358000C043C00720D03BE0D4F8B400C0F3012111
:1035900003290ED0DBF8001021F47C51CBF8001089
:1035A000DB480168B4F8B420C2F30B021143016098
:1035B000E3E7DBF80020D84B22F47C5203EA10103A
:1035C0000243CBF80020EBE7E06F182816D005DCAB
:1035D000A0B1082808D0102804D10AE020280DD076
:1035E00028280BD001250AE00198012101F0CAFF2B
:1035F00003E00098012102F04FF8054665B12E4620
:103600002078C04380071ED4A06F062819D2DFE8B7
:1036100000F0160C11161616DAF80010E26F21F001
:1036200038011143CAF80010EAE70198012101F0BE
:10363000A9FF03E00098012102F02EF805467DB1B4
:1036400000E001252E462078C04340071FD4D4F85F
:103650009400062819D2DFE800F0160C1116161691
:10366000DAF80010A26F21F007011143CAF8001028
:10367000E9E70198012101F085FF03E000980121AD
:1036800002F00AF80546A5B100E001252E46207893
:10369000C04380062BD4D4F89000B0F1405F24D012
:1036A00011DC10B3B0F1805F15D0B0F1005F10D124
:1036B00016E0D9F80010D4F8942021F00701114346
:1036C000C9F80010E3E7B0F1804F0ED0B0F1A04F81
:1036D0000BD001250AE00198002101F053FF03E01F
:1036E0000098022101F0D8FF054695B12E462078BA
:1036F000C04340062BD4D4F89C00B0F5406F24D0D2
:1037000011DC10B3B0F5806F15D0B0F5006F10D19B
:1037100016E0DAF80010D4F8902021F0E0411143CF
:10372000CAF80010E3E7B0F5805F0ED0B0F5A05FF7
:103730000BD001250AE00198002101F023FF03E0EE
:103740000098022101F0A8FF054695B12E46207889
:10375000C04300062BD4D4F8A000B0F5C04F24D04D
:1037600011DC10B3B0F5005F15D0B0F5804F10D16B
:1037700016E0D9F80010D4F89C2021F4E051114350
:10378000C9F80010E3E7B0F5004F0ED0B0F5204FB8
:103790000BD001250AE00198002101F0F3FE03E0BF
:1037A0000098022101F078FF054655B12E46207899
:1037B000C04300071ED4D4F88400B0F5805F0AD05F
:1037C0000FE0D9F80010D4F8A02021F46041114393
:1037D000C9F80010EBE70098022101F05DFF00B18D
:1037E0000126DAF80010D4F8842021F44051114366
:1037F000CAF800102078C043C00613D4D4F898004B
:10380000B0F5807F05D10098022101F045FF00B19D
:103810000126D9F80010D4F8982021F44071114302
:10382000C9F800102068C043000316D4D4F8A400DF
:1038300038B1B0F5803F09D0B0F5003F0BD001257D
:103840000AE00198002101F09DFE03E000980221AA
:1038500001F022FF05468DB12E462068C04340038B
:1038600022D4D4F88800B0F5801F11D0B0F5001F25
:1038700013D0B0F5401F15D0012514E0D9F8001081
:10388000D4F8A42021F440311143C9F80010E4E732
:10389000386840F40030386004E00098012101F0FD
:1038A000FBFE05465DB12E462068C043C0031CD414
:1038B000206D70B1B0F5803F10D0012514E0DAF82A
:1038C0000010D4F8882021F440111143CAF80010E8
:1038D000EAE7386840F40030386004E001980221DB
:1038E00001F050FE05462DB32E462068C0438000EF
:1038F00005D40098022101F0CFFE00B10126206816
:10390000C043800324D4D4F8800007E00048025864
:103910007044025854440258CFFFFF00B0B1B0F5D4
:10392000807F0FD0B0F5007F10D0B0F5407F0DD074
:1039300001250CE05A480168226D21F480311143C1
:103940000160D2E7386840F400303860F5B32E46A5
:103950002068C043C00207D4D8F80010626F21F07D
:1039600000411143C8F800102068C043C00008D4CB
:10397000DBF80010D4F8B82021F480411143CBF8D3
:1039800000102068C043800207D4D8F80010E26E0F
:1039900021F080711143C8F800102068C043400036
:1039A0000CD4DBF8001021F40041CBF80010DBF858
:1039B0000010D4F8BC201143CBF800102068C0439D
:1039C00008D43748016821F0405100E017E0626DEB
:1039D000114301602068C043000208D4DAF80010E7
:1039E000D4F88C2021F440011143CAF8001020794A
:1039F0000025C04300F0010028430AD00FE0DAF8A8
:103A00000010D4F8802021F440711143CAF800104E
:103A10009EE70198002101F0B5FD00B1064620792E
:103A2000C04300F00200284305D10198012101F0B4
:103A3000A9FD00B106462079C04300F004002843E8
:103A400005D10198022101F09DFD00B106462079C3
:103A5000C04300F00800284305D10098002101F080
:103A60001BFE00B106462079C04300F01000284339
:103A700005D10098012101F00FFE00B10646207922
:103A8000C04300F02000054304D10098022101F05A
:103A900003FE00B916B10120BDE8FC9F0020FBE742
:103AA0004C4402582DE9F05F04000D467ED0DFF84B
:103AB0004492D9F8000000F00F00A8420CD2D9F8C7
:103AC000001021F00F012943C9F80010D9F80000B7
:103AD00000F00F00A84269D12078874E40070AD530
:103AE0002069316801F07001884204D9316821F001
:103AF0007001014331602078DFF8008200070CD5A7
:103B000060694146D8F8002002F07002904204D962
:103B10000A6822F0700202430A602078C0060CD5C1
:103B2000A0694146D8F8002002F4E062904204D92E
:103B30000A6822F4E06202430A602078DFF8C0B12C
:103B400080060CD5E0695946DBF8002002F07002CF
:103B5000904204D90A6822F0700202430A60207879
:103B600080070AD5E068316801F00F01884204D966
:103B7000316821F00F01014331602078C0073DD04A
:103B80003068A16820F47060084330605A4960686A
:103B90001839022818D0032819D00968012819D02B
:103BA0004907002949DADFF850A100E045E0AAF111
:103BB000080ADAF8001021F007010143CAF80010E2
:103BC000FFF756F8074611E009688903E9E7096835
:103BD0008901E6E7C905E4E7FFF74AF8C11B41F2AE
:103BE0008830814202D90320BDE8F09FDAF8000056
:103BF000616800F03800B0EBC10FEDD1207880078C
:103C00000AD5E068316801F00F01884204D23168BA
:103C100021F00F0101433160D9F80010484601F04E
:103C20000F01A9420BD9016821F00F01294301605E
:103C3000006800F00F00A84201D00120D4E72078EE
:103C400040070AD52069316801F07001884204D22A
:103C5000316821F0700101433160207800070CD5F4
:103C600060694146D8F8002002F07002904204D208
:103C70000A6822F0700202430A602078C0060CD560
:103C8000A0694246D8F8001001F4E061884204D2ED
:103C9000116821F4E06101431160207880060CD5A1
:103CA000E0695946DBF8002002F07002904204D22D
:103CB0000A6822F0700202430A6000F0A1F831683D
:103CC000C1F303220F498A5C02F01F02D040326820
:103CD00002F00F02895C0C4A01F01F0120FA01F189
:103CE00011600A4908600A480068BDE8F05FFEF705
:103CF000FBBF000000200052184402581C44025828
:103D000020440258A882000818000024140000244F
:103D10000C0000243F220260144A126802F00702DD
:103D20004260124A0832136803F4706383601368B8
:103D300003F00F03C360126802F0700202610B4AC5
:103D40000C32136803F070034361126802F4E062FE
:103D50008261064A1032126802F07002C2610448A1
:103D6000006800F00F00086070470000104402581F
:103D70000020005200B500F043F80B4A11681268A9
:103D8000C1F303230949CB5C03F01F03D84002F0C1
:103D90000F02895C064A01F01F0120FA01F111604F
:103DA000044A1060084600BD18440258A882000862
:103DB000180000241400002400B5FFF7DBFF0549BC
:103DC0000968054AC1F30211515C01F01F01C840A6
:103DD00000BD00001C440258A882000800B5FFF78F
:103DE000C9FF05490968054AC1F30221515C01F088
:103DF0001F01C84000BD00001C440258A8820008F2
:103E0000434830B50068444C10F03801414808D0B0
:103E10000211082903D010290BD018290BD0104605
:103E200030BD21688906FBD52168C1F3C101C840B6
:103E300030BD3A4830BD364918310A68096802F089
:103E40000302334B1C33C1F305111B68304D03F0E3
:103E5000010324352D68C5F3CC0515FB03F300EEF3
:103E6000103AB8EE400AE9B3294BDFED2D0A2033B2
:103E7000B7EE001A62B1DFED2B1A012A01D0022A37
:103E80003CD002EE101AF8EE422A81EEA22A17E088
:103E9000226892060CD52268C2F3C102D04001EE1E
:103EA000900AF8EE612A01EE901AF8EE611A05E028
:103EB00001EE901ADFED1C2AF8EE611A82EEA12ABB
:103EC0001868C0F3080001EE900A1868F8EE611A4D
:103ED00040EE201A31EE810A22EE000AC0F346209D
:103EE000401C00E011E000EE900AF8EE600A80EE5F
:103EF000201ABCEEC10A10EE100A30BD01EE901A75
:103F0000DFED0A2AF8EE611AD8E7002030BD000084
:103F1000104402580090D0030044025840787D01BC
:103F2000000000390024744A0024744C20BCBE4BAD
:103F30002DE9F05F040079D02078DFF8F8A3FE4E79
:103F4000FE4DC00747D0DAF80000316800F03800B5
:103F5000102815D0182803D101F0030002280FD033
:103F60006068B0F5803F12D010B1B0F5A02F18D026
:103F7000286820F480302860286820F4802009E038
:103F80002868800327D560680028D4D023E02868FB
:103F900040F480302860606888B1FEF769FE07460B
:103FA00009E0286840F480202860F0E7FEF760FE12
:103FB000C01B642872D828688003F7D50BE0FEF791
:103FC00057FE074604E0FEF753FEC01B6428F1D8F5
:103FD00028688003F7D4207841F20309D84F80077E
:103FE00066D5DAF80000316810F038000ED01828D5
:103FF00001D188070AD0E06880B3296821F019014F
:1040000001432960FEF734FE80462EE02868400711
:1040100002D5E06800288ED02868E16820F01900F9
:1040200008432860FEF724FE804606E0D8E0FEF74D
:104030001FFEA0EB08000228BCD828684007F6D570
:10404000FEF710FE48451AD82069402811D039687B
:1040500021F47C3141EA0030386029E016E0FEF7B7
:1040600007FEA0EB08000228A4D828684007F6D570
:10407000E6E7386820F47C3040F40030ECE738683C
:10408000217C20F0FE4040EA0160E5E7286820F04E
:1040900001002860FEF7ECFD804606E000E1FEF737
:1040A000E7FDA0EB0800022884D828684007F6D472
:1040B0002078C0065AD5DAF80000316800F03800E0
:1040C000DFF870B20828ABF1040B10D0182803D128
:1040D00001F0030001280AD0E0690028286836D0E2
:1040E00040F080002860FEF7C3FD804621E028688C
:1040F000C00521D5E069802872D11DE0206A202802
:104100001FD0396821F0F84141EA806038602DE025
:10411000DBF8001094F8202021F07C5141EA026184
:10412000CBF8001022E0FEF7A3FDA0EB0800022868
:104130009AD82868C005F6D5FEF794FD4845E7D81B
:10414000DCE7386820F0F84040F08040DEE720F0FF
:1041500080002860FEF78CFD074604E0FEF788FD2E
:10416000C01B0228A0D82868C005F7D42078000713
:1041700028D5714960694C3100288846084609688D
:1041800010D041F001010160FEF772FD074604E026
:10419000FEF76EFDC01B022886D8D8F80000800705
:1041A000F6D50FE021F001010160FEF761FD074641
:1041B00004E0FEF75DFDC01B022871D8D8F80000AE
:1041C0008007F6D42078800623D5A06900282868C7
:1041D00010D040F480502860FEF74AFD074605E005
:1041E00038E1FEF745FDC01B022859D82868800435
:1041F000F7D50EE020F480502860FEF739FD074621
:1042000004E0FEF735FDC01B022849D82868800469
:10421000F7D4207840074DD5DFF82881D8F8001072
:1042200041F48071C8F80010FEF722FD074604E053
:10423000FEF71EFDC01B642832D8D8F80000C00568
:10424000F6D53D4FA068483701280AD008B10528A7
:1042500013D0386820F001003860386820F004007E
:1042600002E0386840F001003860A06841F2883907
:1042700090B1FEF7FDFC80460AE0386840F004008B
:104280003860EEE7FEF7F4FCA0EB0801494507D8DB
:1042900038688007F6D50DE0FEF7EAFC804606E0B8
:1042A00083E0FEF7E5FCA0EB080149457DD83868BE
:1042B0008007F6D4616AD9B3DAF800004FF6F87BCC
:1042C000DFF8748008F10808C0F3C200032808F181
:1042D0000409A8F1040A69D02868022920F0807036
:1042E000286003D0FEF7C4FC044688E0FEF7C0FC5B
:1042F000074604E0FEF7BCFCC01B02287CD82868F7
:104300008001F7D4306840F2F3318843E16A40EA33
:104310000110A16A0843306094F83400218E4002F5
:10432000491EA0F5007080B2C1F3080108430BE0FC
:10433000B3E00000104402582844025800440258D8
:104340000444025800480258218F4FF4FE02491ECF
:1043500002EA0141084394F83C101202491E02EAA5
:1043600001610843C8F80000DAF80010504621F057
:104370000101CAF80010D9F80020A36C22EA0B0250
:1043800042EAC302C9F80020DAF80010226C21F0DA
:104390000C011143CAF80010DAF80010626C21F029
:1043A000020111430160016801E025E02BE041F4C6
:1043B00080310160016841F400310160016841F41D
:1043C00080210160016841F001010160286840F02E
:1043D00080702860FEF74CFC044604E0FEF748FCC1
:1043E000001B022808D828688001F7D555E0FEF7A1
:1043F0003FFC001B022802D90320BDE8F09F28687B
:104400008001F4D449E03268D8F80000012921D0B5
:10441000A36A02F0030199421CD1E16AC2F30512BA
:10442000914217D1216BC0F30802491E8A4211D173
:10443000616BC0F34622491E91420BD1A16BC0F3C0
:104440000642491E914205D1E16BC0F30660491E48
:10445000814201D00120D0E7D9F800004F46A16C7D
:10446000C0F3CC00814218D0DAF80000564620F0A4
:104470000100CAF80000FEF7FBFB0546FEF7F8FB5B
:10448000A842FBD03868A16C20EA0B0040EAC100CA
:104490003860306840F0010030600020ADE7000077
:1044A0002DE9F04104001D4616460F4603D0D4F80E
:1044B000880018B108E00120BDE8F081002084F8F0
:1044C0008400204600F03EFD2420C4F888002068C7
:1044D000016821F001010160A06A10B1204601F0DD
:1044E00055FC204601F0F6FD0128E5D020688168E2
:1044F00041F4804181602068816821F400413943A2
:104500008160700540EA054120680268064B1A4048
:104510000A4302602068016841F001010160204601
:10452000BDE8F04101F096BCFFFF00FC704770470A
:10453000704710B5040003D094F83D0010B107E0B7
:10454000012010BD002084F83C00204600F022F835
:10455000022084F83D002068211D01F00FFB01209E
:1045600084F8480084F83E0084F83F0084F8400056
:1045700084F8410084F8420084F8430084F8440041
:1045800084F8450084F8460084F8470084F83D002C
:10459000002010BD7047000090F83D10012901D0A7
:1045A00001207047022180F83D100168CA6842F07E
:1045B0000102CA6000681349884214D0B0F1804FEC
:1045C00011D0114988420ED0104988420BD01049B1
:1045D000884208D00F49884205D00F49884202D04E
:1045E0000E49884207D181680D4A1140062906D03C
:1045F000B1F5803F03D0016841F001010160002066
:104600007047000000000140000400400008004026
:10461000000C004000040140001800400040014030
:104620000700010070472DE9F04104460068C668A4
:1046300005694FF00007A90713D5B10711D5F91E79
:10464000016101202077206880698007204602D020
:10465000FFF7E8FF04E000F08BF8204600F089F84F
:104660002777680716D5700714D521686FF0040006
:104670000861022020772068806910F4407F20467E
:1046800002D0FFF7CFFF04E000F072F8204600F000
:1046900070F82777280715D5300713D521686FF0F4
:1046A00008000861042020772068C0698007204640
:1046B00002D0FFF7B7FF04E000F05AF8204600F000
:1046C00058F82777E80616D5F00614D521686FF05C
:1046D00010000861082020772068C06910F4407F2E
:1046E000204602D0FFF79EFF04E000F041F820468C
:1046F00000F03FF82777E80708D0F00706D02168D8
:104700006FF001000861204600F034F8280601D45B
:10471000A80408D5300606D521686FF40250086158
:104720002046FFF704FFE80508D5300606D52168C6
:104730006FF4807008612046FFF7F8FE680608D520
:10474000700606D521686FF040000861204600F031
:104750001BF8A8060AD5B00608D521686FF020001E
:1047600008612046BDE8F041FFF7E2BEBDE8F081F8
:104770007047704700680349884201D1FEF77EBA4E
:104780007047000000000140704790F88410012934
:1047900018D0012180F884102421C0F88810016805
:1047A0000A680B6823F001030B6022F0005100221D
:1047B0004266036819602021C0F8881080F88420C0
:1047C000104670470220704710B50446D0F88C00A0
:1047D000202801D0022010BD51B14AB10120E0666D
:1047E00000202067204601F043FE010002D005E0D2
:1047F000012010BDE06E012802D00121084610BD45
:10480000226810201062206850E8002F42F0100249
:1048100040E80023002BF6D1F0E7000070B50C460D
:104820003A4905460068884262D1032C11D33848C2
:104830000178AA290DD1011911F8011C552908D1B7
:10484000417834480129417003D10170016A491C43
:1048500001622F4940223048FFF7B6FF2E48D0F8BA
:10486000800001682D4881423AD02C48183081429E
:1048700036D02A483030814232D0284848308142F0
:104880002ED02648603081422AD024487830814298
:1048900026D022489030814222D02048A830814240
:1048A0001ED01F4881421BD01D481830814217D0AE
:1048B0001B483030814213D01948483081420FD014
:1048C0001748603081420BD015487830814207D0BC
:1048D00013489030814203D01148A830814203D15F
:1048E000086820F0080002E0086820F00400086072
:1048F0000C492868884207D1054822462946BDE868
:104900007040743800F0F0BF70BD000000780040C7
:104910006C4E00249C000024480200241000024039
:104920001004024000440040704770B5044690F8FF
:10493000840001281DD0012084F884002420C4F8BC
:10494000880020680568026822F001020260206881
:10495000826822F060620A438260204601F0F4F926
:10496000206805602020C4F88800002084F88400B6
:1049700070BD022070BD70B5044690F88400012817
:104980001DD0012084F884002420C4F88800206809
:104990000568026822F0010202602068826822F045
:1049A00060420A438260204601F0CEF9206805602B
:1049B0002020C4F88800002084F8840070BD022004
:1049C00070BD7047704770B50446D0F88800D4F8C1
:1049D0008C60216889684FF01005090618D52128D8
:1049E00016D12068083050E8001F21F0800140E80F
:1049F0000012002AF5D1E06F38B1FCF76DFB20B151
:104A0000E06FFCF74FFE202823D0204601F04AFB40
:104A10002068806840061AD5222E18D120680830F8
:104A200050E8001F21F0400140E80012002AF5D1B3
:104A3000D4F8800040B1FCF74FFB28B1D4F88000D7
:104A4000FCF730FE202804D0204601F001FB0020B6
:104A500070BDC4F89050032070BD000010B5314AFD
:104A6000016891420AD10F220A6201688A6942F004
:104A700008028A612C49CA69521CCA6100682B4924
:104A800088424ED12A4940222A48FFF79DFE2948F4
:104A90002949D0F88000006888423AD02649183168
:104AA000884236D024493031884232D022494831B8
:104AB00088422ED02049603188422AD01E49783160
:104AC000884226D01C499031884222D01A49A83108
:104AD00088421ED0194988421BD018491831884293
:104AE00017D016493031884213D0144948318842D2
:104AF0000FD01249603188420BD01049783188427A
:104B000007D00E499031884203D00C49A831884221
:104B100003D1016821F0080102E0016821F00401DD
:104B2000016010BD004400409C000024007800405B
:104B30006C4E002448020024100002401004024081
:104B40002DE9F04107680446F8693968BA6840F60B
:104B50000F0318424FF000054FF002060AD18306FA
:104B60007ED501F0200302F0805C53EA0C0377D07D
:104B7000616F7DE1D34BDFF850C3134001EA0C0CA9
:104B800053EA0C0C6CD05FEAC07C0CD05FEAC15CCD
:104B900009D54FF0010CC7F820C0D4F8907047F049
:104BA0000107C4F89070870709D5D70707D0276891
:104BB0003E62D4F8906046F00406C4F89060460760
:104BC0000AD5D60708D0276804263E62D4F890603C
:104BD00046F00206C4F8906006070CD501F02006E6
:104BE0001E4308D0266808233362D4F8903043F07F
:104BF0000803C4F8903003050BD54B0109D526688E
:104C00004FF400633362D4F8903043F02003C4F8CB
:104C10009030D4F89030002B3DD0800609D501F0BB
:104C2000200002F08051084303D0616F09B1204693
:104C30008847D4F8900021688968490602D410F0AA
:104C4000280F2AD0204601F003FA20688068400629
:104C50001ED52068083050E8001F21F0400100E018
:104C600021E040E80012002AF3D1D4F8800078B1A6
:104C700096490165D4F88000FCF7DEFB00280AD0D5
:104C8000D4F88000016D00E02046BDE8F0410847FF
:104C90002046FFF7E3FEBDE8F0812046FFF7DEFE89
:104CA000C4F89050F7E7D4F86CC02023BCF1010F92
:104CB0007ED15FEAC06C7BD55FEAC16C78D51020ED
:104CC000386220688068400673D5D4F88020804917
:104CD0001068884234D07E491831884230D07C49EF
:104CE000303188422CD07A494831884228D07849DE
:104CF0006031884224D076497831884220D0744986
:104D0000903188421CD07249A831884218D071492C
:104D1000884215D06F491831884211D06D49303121
:104D200088420DD06B494831884209D069496031C9
:104D3000884205D067497831884201D06549903171
:104D400040684FF480770004000C40D0B4F85C1049
:104D500081423CD9A4F85E00D069B8422FD02068C7
:104D600050E8001F21F4807140E80012002AF6D1BB
:104D70002068083050E8001F21F0010140E80012CF
:104D8000002AF5D12068083050E8001F21F04001CA
:104D900040E80012002AF5D1C4F88C30E56620689E
:104DA00050E8001F21F0100140E80012002A01E045
:104DB00049E019E0F3D1D4F88000FCF78DF92667BB
:104DC000B4F85C00B4F85E10401A81B208E0B4F8A0
:104DD0005C1081427FF466AFD069B842FAD1266791
:104DE0002046FFF71BFD56E7B4F85C00B4F85E10F0
:104DF000401A81B2B4F85E000028F4D00029F2D045
:104E0000206850E8002F22F4907240E80027002F1D
:104E1000F6D12C4FFF432068083050E8002F3A406D
:104E200040E8002CBCF1000FF5D1C4F88C30E566E9
:104E30006567206850E8002F22F0100240E8002348
:104E4000002BF6D1CBE7C60209D5560207D54FF4A1
:104E5000801038622046BDE8F041FFF7B3BD06067A
:104E60000AD501F0800602F40002164304D0A16FB7
:104E700000297FF409AF0EE7420611D54A060FD587
:104E80002046016851E8002F22F0400241E800244A
:104E9000002CF6D1C0F88830856700F071F9FAE689
:104EA000020206D54A0004D52046BDE8F041FFF7CE
:104EB00088BDC00197D5002995DA2046BDE8F041AC
:104EC000FFF732BD0100001020010004015F00085F
:104ED000100002401004024010B5040003D0D4F8C2
:104EE000880010B107E0012010BD002084F8840084
:104EF000204600F027F82420C4F8880020680168C4
:104F000021F001010160A06A10B1204600F03EFFCF
:104F1000204601F0DFF80128E6D02068416821F43E
:104F2000904141602068816821F02A0181602068F9
:104F3000016841F0010101602046BDE8104000F029
:104F400089BF00002DE9F047B6B00446142130A80F
:104F5000FBF76CFBC0216846FBF768FB5D4F002642
:104F60005B494FF4806A2068083F5A4D4FF00208B1
:104F700088424FF0070942D100201E960221CDE958
:104F800000106846FEF7BAF808B1FBF7C4FE2868BF
:104F900040F080402860286800F0804035903868F4
:104FA00040F010003860386830A900F010003590EB
:104FB0004FF4C0703090CDE931864748CDE9336970
:104FC000FDF75CFD464D454828604F20C5E90106C8
:104FD000C5E9036A6E612846AE61EE612E626E62BB
:104FE000FCF7DCFE08B1FBF796FEC4F88050002207
:104FF0000521AC635220FDF7D9FE522063E0394908
:10500000884262D100201E960221CDE90010684638
:10501000FEF774F808B1FBF77EFE286840F4003014
:105020002860286800F400303590386840F00800A7
:105030003860386830A9CDF8D09000F0080035907D
:105040007020CDE930080320CDE932602648FDF715
:1050500015FD234D4FF440382048574678353038F9
:1050600028602B20C5E90106C5E9036A6E61284660
:10507000AE61C5E907686E62FCF790FE08B1FBF708
:105080004AFEC4F88050AC63154D1448F03518380A
:1050900005F1080128602C206860402081E8C100EB
:1050A0006E612846AE61C5E907686E62FCF776FE60
:1050B00008B1FBF730FEE56700220521AC6326202E
:1050C000FDF774FE2620FDF763FE36B0BDE8F087DD
:1050D00000780040E84402580010025840000240A6
:1050E0007003002400440040000C025870477047D1
:1050F00070B50446D0F88800202801D0022070BD89
:1051000039B332B32165A4F85420A4F85620002105
:10511000C4F890102120C4F88800E06FD8B1154B76
:10512000C363E36F14481864E36F1448D8641346EC
:10513000E06F01652068E56F00F12802216D2846C7
:10514000FDF704F838B11020C4F890002020C4F80E
:105150008800012070BD2168402008622068083066
:1051600050E8001F41F0800140E80012002AF5D10C
:10517000002070BD0560000847600008115F00084E
:10518000044A0168914203D10146034800F0EABB9A
:105190007047000000440040F84D00247047FEE7CF
:1051A0002DED028B82B002F041FE002605469FEDF8
:1051B000540ADFF850A1B146009037468AED0E0A36
:1051C000DFED518A9FED518AAAF1280802F02EFEE8
:1051D000B9F1000F044624D1B0EE480A4948B0EEB8
:1051E000402AF0EE401AB0EE401AF0EE400AFBF70B
:1051F00011FF4448FBF79AFE0146C8F818109AEDD3
:10520000080A4FF0010988ED010AD8ED040A70EE92
:10521000200AC8ED020AD8ED050A30EE600A88EDD2
:10522000030A5EB1012E11D0022E1CD0032E48D0ED
:1052300000266846052102F029F8C7E798F8000023
:105240000028F6D0002725460126F2E7601BB0F5BE
:10525000FA7F06D2B0EE682AF1EE001A98ED021A33
:1052600039E002262BE087B9FDF702FDF0EE480A8F
:105270009AED080AB0EE682AF0EE601A98ED031A6B
:1052800001462348FBF7C0FA0127601BB0F5967F63
:1052900014D2FDF7EDFC1E4A01461D482432FBF7EF
:1052A0004DFA1B489AED0E0A2430B0EE682A90EDB4
:1052B000001AD0ED010AF1EE041A1DE0032625467E
:1052C000B7E7601BB0F57A7F08D298ED011AB0EE0F
:1052D000682AF0EE081AB0EE480A0BE0B0EE480A71
:1052E000002188F8001098ED011AB0EE402AF0EE87
:1052F000401A0E46F0EE400A0248FBF78BFE98E794
:105300003D0AD7BEC4000024CDCCCC3D0000000037
:105310003C4E0024114808B5016841F001010160CC
:1053200000680022052100F0010000900B20FDF72D
:105330003DFD0B20FDF72CFD002205210C20FDF783
:1053400035FD0C20FDF724FD002205210D20FDF781
:105350002DFDBDE808400D20FDF71ABDD8440258C8
:10536000184801221649062310B50D2401600021BA
:105370008160C160017441748174C461C0E9053207
:10538000C0E9083282622023C262C0E90C214022B7
:105390008163C0E90F120422C0E91121C0E9132181
:1053A000C0E91521C0E91713C0E91912FDF79CF9EE
:1053B000002803D0BDE81040FBF7ADBC10BD0000D5
:1053C00000A00040080100241848012216490623C5
:1053D00010B50D2401600021816000F1400CC16016
:1053E000017441748174C461C0E90532C0E90832B6
:1053F00082624023C262C0E90C2181630422C1633E
:105400008CE80E002023C0E91321C0E91521C0E972
:105410001713C0E91912FDF767F9002803D0BDE89A
:105420001040FBF778BC10BD00A40040A801002488
:10543000044A0021044810B501F038F90349086016
:1054400010BD0000F8810008A959000800000024E0
:10545000154808B5016841F080010160016801F05C
:1054600080010091016841F010010160016801F0C4
:1054700010010091016841F001010160016801F033
:1054800001010091016841F008010160016801F02B
:1054900008010091016841F002010160006800F01C
:1054A0000200009008BD0000E044025818480C2299
:1054B000164910B501604FF4E1314160002181606F
:1054C000C160C0E904128161C1610162416281620F
:1054D000FFF702FD08B1FBF71EFC0D480021FFF7A6
:1054E0004AFA08B1FBF717FC09480021FFF71DFA3B
:1054F00008B1FBF710FC0648FFF747F9002803D076
:10550000BDE81040FBF707BC10BD0000007800406C
:105510004802002418480C22164910B501601749AA
:105520004160002181600B46C160C0E904128161C5
:105530000A46C161016241628162FEF7B1FF08B1B2
:10554000FBF7E9FB0C480021FFF715FA08B1FBF760
:10555000E2FB09480021FFF7E8F908B1FBF7DBFBA4
:105560000548FFF712F9002803D0BDE81040FBF70B
:10557000D2BB10BD00440040DC02002400093D0005
:10558000FEE7FEE72DE9F047DFF8088104460E4606
:105590004FF00009D8F80000C043800709D03D4D06
:1055A000283D286820F080602860FDF761FB0746F1
:1055B00007E00120BDE8F087FDF75AFBC01B022879
:1055C00060D828680001F7D4D8F80010226821F4C8
:1055D0007C3141EA0231C8F80010207A4FF4FE0213
:1055E000A1884002491EA0F5007080B2C1F30801F5
:1055F0000843A189491E02EA01410843217C1202A5
:10560000491E02EA0161084322491031086021481D
:10561000001D0168626921F0C00111430160016849
:10562000A26921F0200111430160016821F01001FD
:105630000160184914310A684FF6F8739A43E36918
:1056400042EAC3020A60016841F0100101606EB1D4
:105650000168012E0ED041F400110160286840F06D
:1056600080602860FDF704FB04460DE0016841F40A
:105670000021F2E741F48011EFE7FDF7F9FA001B92
:10568000022801D9032095E728680001F5D548468E
:1056900090E70000284402582DE9F047DFF8088120
:1056A00004460E464FF00009D8F80000C0438007BA
:1056B00009D03D4D283D286820F080502860FDF736
:1056C000D7FA074607E00120BDE8F087FDF7D0FADA
:1056D000C01B022860D828688000F7D4D8F80010D2
:1056E000228821F07C7141EA0251C8F80010207A2A
:1056F0004FF4FE02A1884002491EA0F5007080B25E
:10570000C1F308010843A189491E02EA0141084387
:10571000217C1202491E02EA016108432249183124
:1057200008602148001D0168626921F4406111434D
:1057300001600168A26921F40071114301600168F0
:1057400021F48071016018491C310A684FF6F87322
:105750009A43E36942EAC3020A60016841F4807136
:1057600001606EB10168012E0ED041F080710160C0
:10577000286840F080502860FDF77AFA04460DE072
:10578000016841F48001F2E741F40001EFE7FDF721
:105790006FFA001B022801D9032095E728688000D2
:1057A000F5D5484690E70000284402582DE9F0411D
:1057B0001646044603221D46DDE906788360012073
:1057C000C4E90016002101F03FFF0322A06100217F
:1057D000012001F039FF6061606820B1A9B2304654
:1057E0000022FDF739FAC4E90378BDE8F081000032
:1057F0002DE9F04104461D4600201746069E8846C6
:10580000E0610021A06902F0B3F9606820B121894C
:10581000002289B2FDF720FA2068FFF7D4F8BAB267
:1058200021692068FEF7D0FF2068D0F88000016869
:105830002B4881423AD02A481830814236D0284835
:105840003030814232D02648483081422ED0244820
:10585000603081422AD022487830814226D02048C8
:105860009030814222D01E48A83081421ED01D486F
:1058700081421BD01B481830814217D01948303064
:10588000814213D01748483081420FD0154860300C
:1058900081420BD013487830814207D011489030B4
:1058A000814203D00F48A830814203D1086820F01C
:1058B000080002E0086820F0040008604FF47A70E5
:1058C0004543B5FBF0F1A06902F052F9E2690546E3
:1058D000326040462169FAF72AFE2846BDE8F08189
:1058E000100002401004024008B5036809681B68F4
:1058F0008B4210D1C2616946806902F04EF800986F
:1059000038B106494FF080500860BFF34F8FBFF3A6
:105910006F8F012008BD002008BD000004ED00E0ED
:1059200070B51D4616460446C068FAF700FE606969
:10593000002102F01DF9606820B12189012289B29D
:10594000FDF78AF9B2B2E1682068FFF7D1FB4FF4A6
:105950007A704543B5FBF0F16069BDE8704002F034
:1059600007B9000038B50446006809680068884235
:1059700016D1606820B12189002289B2FDF76CF947
:105980006069694602F009F8009838B105494FF09E
:1059900080500860BFF34F8FBFF36F8F012038BD79
:1059A000002038BD04ED00E000F04CF9012000F0CB
:1059B00042FEFBE74FF0E02010B5006902F028FA44
:1059C000012803D0BDE8104001F028BE10BD000042
:1059D00070B59CB04C216846FAF728FE202113A828
:1059E000FAF724FE0220FDF713FA2148002401688B
:1059F00041F44041016001681E490A6842F0010219
:105A00000A60096801F001011B9101688904FCD555
:105A100040250220009001210990CDE903150421C1
:105A20000826CDE90A413C21CDE90C10CDE90E60F4
:105A30000C201294CDE910046846FEF779FA08B1FB
:105A400072B6FEE73F2013900320CDE914044FF413
:105A500080601A950421CDE91665CDE9185013A888
:105A6000FEF720F8002801D072B6FEE71CB070BD2A
:105A7000184802582C040058334810B5016841F406
:105A800070010160314A106800F00F00072804D24D
:105A9000106820F00F00C01D10602D49086840F00C
:105AA000010008602A4B0020103318600B68294C55
:105AB00023400B60136803F00F03072B04D913680E
:105AC00023F00F03DB1D1360214A18321060121DF2
:105AD0001060121D10601E4B1F4A28331A601B1DD8
